:100000000C9419250C9459250C9459250C945925B8
:100010000C9459250C9459250C9459250C94592568
:100020000C9459250C9459250C9459250C94592558
:100030000C9459250D94A01E0C9459250C94592507
:100040000C9459250C9442D00C9459250C945925A4
:100050000C9459250C9401CF0C9459250D94561EDF
:100060000C9459250C945F9A0C94559A0C9459252C
:100070000C9459250C9459250C9459250C94592508
:100080000C9459250C9459250C9459250C945925F8
:100090000C9459250C9459250C9459250C945925E8
:1000A0000C9459250C9459250C9459250C945925D8
:1000B0000C9459250C9459250C9459250C945925C8
:1000C0000C9459250C9459250C9459250C945925B8
:1000D0000C9459250C9459250C9459250C945925A8
:1000E0000C94592505A84CCDB2D44EB93836A90286
:1000F0000C50B9918688083CA6AAAA2ABE00000026
:10010000803F07634236B79BD8A71A39685618AEA6
:10011000BAAB558C1D3CB7CC5763BD6DEDFD753E3C
:10012000F6177231BF000000803F08000000BE9249
:100130002449123EABAAAA2ABECDCCCC4C3E00002C
:100140000080BEABAAAAAA3E00000000BF000000CB
:10015000803F0000000000084178D3BB4387D113E3
:100160003D190E3CC3BD4282AD2B3E68EC8276BE8B
:10017000D98FE1A93E4C80EFFFBE01C4FF7F3F0055
:10018000000000000D94712F0D94521D0D94481D18
:100190000D94641D0D94601D0D94441D0D94131D4C
:1001A0000D944C1D0D946F000D94802F0D94EE2E28
:1001B0000D94251D0D940E1D0D945F2F0D942D1D76
:1001C0000D943E1D0D9423300D94291D0D94341D66
:1001D0000D943A1D0D9410360D945A1D0D944C2C0F
:1001E0000D94311D0D94561D4E414E494E495459A2
:1001F000494E46CDCCCC3D0AD7233C17B7D13877F2
:10020000CC2B329595E6241FB14F0A000020410007
:1002100000C84200401C4620BCBE4CCA1B0E5AAE51
:10022000C59D7400407A10F35A00A0724E18090060
:1002300010A5D4E80000E87648170000E40B54024B
:100240000000CA9A3B000000E1F505000080969886
:1002500000000040420F000000A0860100000010D6
:100260002700000000E80300000000640000000018
:10027000000A00000000000100000000002C76D8F9
:1002800088DC674F0823DFC1DFAE59E1B1B796E5DF
:10029000E3E453C63AE651997696E8E6C28426EB43
:1002A000898C9B62ED407C6FFCEFBC9C9F40F2BA56
:1002B000A56FA5F490055A2AF75C936B6CF9676DEE
:1002C000C11BFCE0E40D47FEF520E6B500D0ED9043
:1002D0002E0300943577050080841E080000204E10
:1002E0000A000000C80C333333330F986E128311A9
:1002F00041EF8D2114893BE65516CFFEE6DB18D180
:10030000844B381BF77C1D901DA4BBE42420328451
:10031000725E228100C9F124ECA1E53D27D092D084
:10032000ABD093D0A0D0A3D097D09AD09020D0A417
:10033000D098D09BD090D09CD095D09DD0A2D0907A
:1003400000D097D090D093D0A0D0A3D097D09AD0FF
:100350009020D0A4D098D09BD090D09CD095D09D08
:10036000D0A2D09000D097D090D09CD095D09DD0E6
:100370009020D0A4D098D09BD090D09CD095D09DE8
:10038000D0A2D0900041425300504C4100D0A1D1A6
:1003900082D0BED0BB2C2020094300D09AD0B0D050
:1003A000BCD0B5D180D0B02C094300200020002063
:1003B00000200020002500202020202020200020D8
:1003C00020202000657272001FE03FF03FF03FF0F8
:1003D0001FE01FE03FF03FF03FF00FC00780030039
:1003E0001FE02010201020101020102020102010BE
:1003F00030300840048003003FFFF038007030FCCC
:100400003020FC102078102030102C00D02E31D05D
:100410002F7BD02F7BD02E31D02C00D0203010203D
:10042000781020FC1030FC303800703FFFF03FFFA8
:10043000F03800703186302387102787902F87D0BF
:100440002F03D02030102078102078102030102F6B
:1004500003D02F87D027879023871031863038002C
:10046000703FFFF01FFFF81FFFF804104002082044
:1004700002082004104008208010410010410008AC
:1004800020800410400000001FFFF81FFFF8D09FDD
:10049000D0B5D187D0B0D182D18C20D0BED182D07E
:1004A000BCD0B5D0BDD0B5D0BDD0B0004D32350038
:1004B000D09FD0B0D183D0B7D0B02E2E2E004D32E9
:1004C0003400D092D18BD0B3D180D183D0B7D0BA01
:1004D000D0B02C20D0BCD0BC00D097D0B0D0B3D1FD
:1004E00080D183D0B7D0BAD0B02C20D0BCD0BC0043
:1004F000D094D0B8D0B0D0BC2E20D184D0B8D0BB4E
:10050000D0B0D0BCD0B5D0BDD182D0B000D092D1C7
:100510008BD0BAD0BB00D092D0BAD0BB004520D08F
:10052000B220D0BCD0BCC2B3004D333033205531E3
:10053000204525692053256900D090D0B2D182D0C2
:10054000BED0BAD0B0D0BBD0B8D0B1D1802E205060
:100550004944202A005049442D44202A005049444F
:100560002D49202A005049442D50202A00200820DF
:10057000D0A4D0B0D0BAD182D0BED1800020082C77
:100580002009D0A120D0BCD0B0D0BAD181002008A1
:100590002C2009D0A12020D0BCD0B8D0BD00D09F45
:1005A000D0B5D180D0B5D0BCD0B5D189D0B5D0BD73
:1005B000D0B8D0B520D0BCD0B8D0BD00D0A1D0BA72
:1005C000D0BED1802ED0BCD0B8D0BD00D0A1D0BA82
:1005D000D0BED1802ED0BCD0B0D0BAD181204000C6
:1005E000D0A3D181D0BAD0BED1802ED0BCD0B0D0D3
:1005F000BAD181204500D0A3D181D0BAD0BED1805C
:100600002ED0BCD0B0D0BAD181204000D0A3D181AF
:10061000D0BAD0BED1802ED0BFD183D182D0B5D1B7
:10062000882E00D0A3D181D0BAD0BED1802ED0B236
:10063000D182D18FD0B3D0B8D0B22E00D0A3D18187
:10064000D0BAD0BED180D0B5D0BDD0B8D0B50040E2
:1006500020D188D0B0D0B32FD0BCD0BC00D0A0D097
:10066000B0D181D188D0B8D180D0B5D0BDD0BDD1E6
:100670008BD0B520D0BDD0B0D181D182D180D0BEB9
:10068000D0B9D0BAD0B8003F00D09ED182D0BCD073
:10069000B5D0BDD0B000D098D0BDD0B8D1862DD1C6
:1006A0008F004D34323800D098D0BDD0B8D186D02C
:1006B000B8D0B0D0BBD0B8D0B7D0B0D186D0B8D138
:1006C0008F20454550524F4D00D0A4D0B8D0BBD05C
:1006D000B0D0BCD0B5D0BDD18200D0A2D0B5D0BCF6
:1006E000D0BFD0B5D180D0B0D182D183D180D0B0AD
:1006F00000D0A8D0B0D0B3D0BED0B22FD0BCD0BC28
:1007000000D09ED182D0BAD0BBD0BED0BDD0B5D0A3
:10071000BDD0B8D0B520D183D0B3D0BBD0B000D03D
:10072000A3D181D0BAD0BED180D0B5D0BDD0B8D001
:10073000B52C20D0BCD0BC2FD1813200D0A1D0BAF2
:10074000D0BED180D0BED181D182D18C2C20D0BC62
:10075000D0BC2FD18100D0A3D181D182D0B0D0BD67
:10076000D0BED0B22E20D181D0BCD0B5D189D0B5E9
:10077000D0BDD0B8D18F20D0B4D0BED0BCD0B000C6
:10078000D09AD0BED0BDD184D0B8D0B3D183D180DF
:10079000D0B0D186D0B8D18F003F00D0A1D0BBD08F
:1007A000B5D0B4D183D18ED189D0B8D0B920D1837E
:1007B000D0B3D0BED0BB00D093D0BED182D0BED0FB
:1007C000B2D0BE00D094D0B0D0BBD18CD188D0B53F
:1007D00000D09DD183D0BBD0B5D0B2D0BED0B52093
:1007E000D0BFD0BED0BBD0BED0B6D0B5D0BDD0B8B3
:1007F000D0B5004732384C3000D0A1D182D0BED025
:10080000BB2C2020094300D0A1D0BED0BFD0BBD08C
:10081000BE2C20094300D09AD183D0BBD0B5D18063
:1008200000D09AD0BED0BDD184D0B8D0B3D183D1BE
:1008300080D0B0D186D0B8D18F00D09DD0B020D09C
:10084000B1D0B0D0B7D0BED0B2D18BD0B520D0BF50
:10085000D0B0D180D0B0D0BCD0B5D182D180D18B36
:1008600000D097D0B0D0B3D180D183D0B7D0B8D199
:1008700082D18C20D0BDD0B0D181D182D180D0BEE8
:10088000D0B9D0BAD0B800D0A1D0BED185D180D057
:10089000B0D0BDD0B8D182D18C20D0BDD0B0D18164
:1008A000D182D180D0BED0B9D0BAD0B800D09DD03E
:1008B000B0D181D182D1802ED0BDD0B0D0B3D18083
:1008C000D0B5D0B2D0B0202400D0A0D0B0D181D14A
:1008D00088D0B8D180D0B5D0BDD0BDD18BD0B52017
:1008E000D0BDD0B0D181D182D180D0BED0B9D0BA64
:1008F000D0B800D093D0BBD0B0D0B2D0BDD0BED095
:10090000B520D0BCD0B5D0BDD18E004D373032200F
:10091000542564004D363030204230205425640088
:100920004D373032203B2564004D3730312054257F
:100930006400D0A1D0BCD0B5D0BDD0B020D184D07F
:10094000B8D0BBD0B0D0BCD0B5D0BDD182D0B00073
:10095000D09DD0B0D0B3D180D0B5D0B220D0A1D06E
:10096000B2D0BED0B900D09DD0B0D0B3D180D0B578
:10097000D0B2202400D09DD0B0D0B7D0B0D0B40039
:100980004D363030423000D092D0BED0B7D0BED03D
:10099000B1D0BDD0BED0B2D0B8D182D18C20D0BF22
:1009A000D0B5D187D0B0D182D18C00D092D18BD0AC
:1009B000B4D0B0D0B2D0B8D182D18C20D0B5D1894A
:1009C000D19100D09ED09FD0A6D098D09820D09F13
:1009D000D0A0D09ED094D09ED09BD096D095D09DC4
:1009E000D098D0AF3A00D09FD095D0A7D090D0A2C9
:1009F000D0AC20D09DD09020D09FD090D0A3D097C5
:100A0000D095002F0020002020D0A1D0BED0BFD094
:100A1000BBD0B03A2000D09FD0B0D180D0BAD0BEE9
:100A2000D0B2D0BAD0B02E2E2E000000D09ED0B6BC
:100A3000D0B8D0B4D0B0D0B9D182D0B520D0BDD04C
:100A4000B0D187D0B0D0BBD0B000D181D0BCD0B5B0
:100A5000D0BDD18B20D184D0B8D0BBD0B0D0BCD049
:100A6000B5D0BDD182D0B00000D09ED0B6D0B8D025
:100A7000B4D0B0D0B9D182D0B500D0B2D18BD0B380
:100A8000D180D183D0B7D0BAD0B800D184D0B8D07B
:100A9000BBD0B0D0BCD0B5D0BDD182D0B000D09D3D
:100AA000D0B0D0B3D180D0B5D0B220D181D0BED01B
:100AB000BFD0BBD0B000D096D0B4D0B8D182D0B522
:100AC0002E2E2E0000D09DD0B0D0B6D0BCD0B8D144
:100AD00082D0B520D0BAD0BDD0BED0BFD0BAD183DD
:100AE00000D0B4D0BBD18F20D0BDD0B0D0B3D18096
:100AF000D0B5D0B2D0B000D181D0BED0BFD0BBD0A5
:100B0000B02E2E2E00D092D181D182D0B0D0B2D1D1
:100B10008CD182D0B520D184D0B8D0BBD0B0D0BCDD
:100B2000D0B5D0BDD18200D0B820D0BDD0B0D0B625
:100B3000D0BCD0B8D182D0B520D0BAD0BDD0BED034
:100B4000BFD0BAD18300D0B4D0BBD18F20D0BFD119
:100B500080D0BED0B4D0BED0BBD0B6D0B5D0BDD082
:100B6000B8D18F00D09ED0B6D0B8D0B4D0B0D0B964
:100B7000D182D0B500D0B7D0B0D0B3D180D183D09E
:100B8000B7D0BAD0B800D184D0B8D0BBD0B0D0BC28
:100B9000D0B5D0BDD182D0B000D09DD0B0D0B6D02D
:100BA000BCD0B8D182D0B520D0BAD0BDD0BED0BFD5
:100BB000D0BAD18300D0B4D0BBD18F20D0BFD180E8
:100BC000D0BED0B4D0BED0BBD0B6D0B5D0BDD0B8DA
:100BD000D18F00D0BFD0B5D187D0B0D182D0B800EE
:100BE000D09ED0B6D0B8D0B4D0B0D0B9D182D0B524
:100BF00000D0B2D0BED0B7D0BED0B1D0BDD0BED064
:100C0000B2D0BBD0B5D0BDD0B8D18F00D0BFD0B599
:100C1000D187D0B0D182D0B800D09ED0B6D0B8D0D5
:100C2000B4D0B0D0B9D182D0B500D18DD0BAD181F5
:100C3000D182D180D183D0B7D0B8D0B800D184D000
:100C4000B8D0BBD0B0D0BCD0B5D0BDD182D0B00070
:100C50003135300035004245443A204550434F532A
:100C6000203130304B00D09AD0BED0BDD182D1805F
:100C7000D0BED0BBD18C20D183D182D0B5D187D08A
:100C8000BAD0B820D0A23A20D092D0BAD0BB00D0EF
:100C90009CD0B0D0BAD1812E20080032383500D097
:100CA0009CD0B8D0BD2E20200800350045313A2018
:100CB0004550434F53203130304B00D091D09F00EE
:100CC00047656E6572696300D09FD180D0BED182C6
:100CD000D0BED0BAD0BED0BB00312E3000D0A1D013
:100CE000BAD0BED180D0BED181D182D18C2CD0914E
:100CF000D09ED09400323530303030004D4B5320F0
:100D000047454E204C00D092D18BD180D0B0D0B28C
:100D1000D0BDD0B8D0B2D0B0D0BDD0B8D0B520D131
:100D200081D0B5D182D0BAD0BED0B900D0ADD0BAC2
:100D3000D181D182D180D183D0B4D0B5D180D18BB3
:100D40000031006D61726C696E66772E6F7267009C
:100D5000546F726E61646F00323032352D30312D38
:100D6000313600322E312E332D6265746132004DE2
:100D700061726C696E00D0A2D0B5D180D0BCD0B801
:100D8000D181D182D0BED180D18B00D094D0B0D0CF
:100D9000BDD0BDD18BD0B520D0BFD0BBD0B0D1821B
:100DA000D18B00D094D0B0D0BDD0BDD18BD0B520E8
:100DB000D0BFD180D0B8D0BDD182D0B5D180D0B095
:100DC00000D093D0BBD0B0D0B2D0BDD0BED0B52073
:100DD000D0BCD0B5D0BDD18E003F00D09DD0B0D01A
:100DE000B7D0B0D0B400D0A1D182D0BED0BF003F28
:100DF00000D09DD0B5D18200D094D0B000D09DD08D
:100E0000B5D18220534420D0BAD0B0D180D182D184
:100E10008B00D09FD0B5D187D0B0D182D18C20D1DA
:100E20008120534420D0BAD0B0D180D182D18B0060
:100E3000D0A1D0BCD0B5D0BDD0B8D182D18C2053F8
:100E40004420D0BAD0B0D180D182D183004D32318C
:100E500000D09E20D0BFD180D0B8D0BDD182D0B537
:100E6000D180D0B500D09AD0BED0BDD184D0B8D07A
:100E7000B3D183D180D0B0D186D0B8D18F00D0A2E9
:100E8000D0B5D0BCD0BFD0B5D180D0B0D182D183C5
:100E9000D180D0B000D0A1D0BCD0B5D0BDD0B020D2
:100EA000D184D0B8D0BBD0B0D0BCD0B5D0BDD18269
:100EB000D0B000D09FD180D0BED0B1D0B02FD0B2B2
:100EC000D18BD180D0B0D0B2D0BDD0B8D0B2D0B05C
:100ED000D0BDD0B8D0B500D094D0B2D0B8D0B6D0B4
:100EE000B5D0BDD0B8D0B500D09FD180D0BED0B4E1
:100EF000D0BED0BBD0B6D0B8D182D18C20D0BFD09C
:100F0000B5D187D0B0D182D18C00D09DD0B0D18165
:100F1000D182D180D0BED0B8D182D18C00D09ED128
:100F200081D182D0B0D0BDD0BED0B2D0B8D182D124
:100F30008C20D0BFD0B5D187D0B0D182D18C00D099
:100F40009FD0B0D183D0B7D0B020D0BFD0B5D1879B
:100F5000D0B0D182D0B800D093D0BBD0B0D0B2D076
:100F6000BDD18BD0B920D18DD0BAD180D0B0D0BD79
:100F7000003F00D097D0B0D0BFD183D181D182D0F3
:100F8000B8D182D18C20D0BFD0B5D187D0B0D1829A
:100F9000D18C00D09ED182D0BCD0B5D0BDD0B00015
:100FA000D09FD0B5D187D0B0D182D18C0043616EB3
:100FB0006E6F7420656E74657220737562646972F9
:100FC0003A200002202E2E00D093D0BBD0B0D0B259
:100FD000D0BDD0BED0B520D0BCD0B5D0BDD18E0054
:100FE0002100D0A1D0BED0BFD0BBD0BE20D0BDD0BC
:100FF000B520D0BDD0B0D0B3D180D0B5D182D0BED5
:1010000000D09DD0B0D0B7D0B0D0B400D09FD180A8
:10101000D0BED0B4D0BED0BBD0B6D0B8D182D18CE7
:1010200000D0ADD0BAD181D182D180D183D0B4D01B
:10103000B5D18000D094D0B2D0B8D0B6D0B5D0BDA4
:10104000D0B8D0B500D092D18BD0BAD0BBD18ED190
:1010500087D0B8D182D18C20D0B4D0B2D0B8D0B3A0
:10106000D0B0D182D0B5D0BBD0B8004D3834004715
:1010700032385A004732385900D09FD0B0D180D092
:10108000BAD0BED0B2D0BAD0B02040004732385823
:1010900000D09FD0B0D180D0BAD0BED0B2D0BAD01C
:1010A000B02058595A0047323800D093D0BBD0B046
:1010B000D0B2D0BDD0BED0B520D0BCD0B5D0BDD17F
:1010C0008E00D0A1D0BED185D180D0B0D0BDD0B857
:1010D000D182D18C20D0BDD0B0D181D182D180D06D
:1010E000BED0B9D0BAD0B800D092D18BD180D0BE0A
:1010F000D0B2D0BDD18FD182D18C20D183D0B3D00A
:10110000BBD18B00D09BD0B8D0BCD0B8D18220D07E
:10111000B2D18BD180D0B0D0BDD0B8D0B2D0B0D009
:10112000BDD0B8D18F005A20D181D182D0BED0BBE2
:10113000D0B000D092D18BD0BAD0BB00D092D0BA70
:10114000D0BB00D092D18BD180D0B0D0B2D0BDD0A6
:10115000B8D0B2D0B0D0BDD0B8D0B520D181D18276
:10116000D0BED0BBD0B000D093D0BBD0B0D0B2D026
:10117000BDD0BED0B520D0BCD0B5D0BDD18E00D0B2
:101180009DD0B0D0B3D180D0B5D182D18C20D181C7
:10119000D182D0BED0BB202400D09DD0B0D0B3D15E
:1011A00080D0B5D182D18C20D181D0BED0BFD0BB70
:1011B000D0BE202400D0A2D0B5D0BCD0BFD0B5D1F5
:1011C00080D0B0D182D183D180D0B0008903850393
:1011D000D09ED185D0BBD0B0D0B6D0B4D0B5D0BD24
:1011E000D0B8D0B500D09DD0B0D0B3D180D0B5D0DC
:1011F000B2202400D09AD183D0BBD0B5D18000D00A
:10120000A1D182D0BED0BB2C2020094300D0A1D0D8
:10121000BED0BFD0BBD0BE2C20094300D093D0BBE2
:10122000D0B0D0B2D0BDD0BED0B520D0BCD0B5D01B
:10123000BDD18E00D09CD0B8D0BAD180D0BED188DC
:10124000D0B0D0B3205A00D09CD0B8D0BAD180D082
:10125000BED188D0B0D0B3204000D09FD0BED182C4
:10126000D0BED0BA00D09AD183D0BBD0B5D1800047
:10127000D0A1D182D0BED0BB2C2020094300D0A168
:10128000D0BED0BFD0BBD0BE2C20094300D0A1D04F
:10129000BAD0BED180D0BED181D182D18C00D093C2
:1012A000D0BBD0B0D0B2D0BDD0BED0B520D0BCD095
:1012B000B5D0BDD18E005761726E696E673A20431A
:1012C0006C65616E20436972636C6520726571752F
:1012D000697265732058590A005761726E696E67AA
:1012E0003A20526164697573204F7574206F6620CF
:1012F00052616E67650A004E6F7A7A6C6520746F72
:101300006F20636F6C64202D20536B697070696E61
:101310006720776970650A00434F4D4D554E49432C
:101320004154494F4E0044525952554E0045525275
:101330004F525300494E464F004543484F00D09E00
:10134000D0A1D0A2D090D09DD09ED092D09BD0954D
:10135000D09DD09E2E20005072696E7465722073ED
:10136000746F707065642064756520746F20657299
:10137000726F72732E2046697820746865206572DA
:10138000726F7220616E6420757365204D39393932
:1013900020746F20726573746172742E20285465F6
:1013A0006D70657261747572652069732072657302
:1013B00065742E20536574206974206166746572AB
:1013C0002072657374617274696E67290A004E6FCA
:1013D00020436865636B73756D2077697468206C52
:1013E000696E65206E756D6265722C204C61737438
:1013F000204C696E653A20004E6F20436865636B30
:1014000073756D2077697468206C696E65206E75E0
:101410006D6265722C204C617374204C696E653A64
:101420002000636865636B73756D206D69736D6112
:101430007463682C204C617374204C696E653A208B
:10144000004C696E65204E756D626572206973206F
:101450006E6F74204C617374204C696E65204E75FC
:101460006D6265722B312C204C617374204C696E57
:10147000653A20004D3131300053657269616C204E
:10148000737461747573206D69736D617463680A38
:101490000053442072656164206572726F720A00A5
:1014A0004B494C4C20627574746F6E2F70696E0AD4
:1014B000002121204B494C4C2063617573656420E9
:1014C00062792000746F6F206D75636820696E61AA
:1014D00063746976652074696D65202D206375726B
:1014E00072656E7420636F6D6D616E643A200021C9
:1014F00021204B494C4C20636175736564206279EF
:101500002000627573793A20706175736564206696
:101510006F7220696E7075740A00627573793A2073
:1015200070617573656420666F7220757365720AE9
:1015300000627573793A2070726F63657373696EB8
:10154000670A00534420D0BAD0B0D180D182D0B045
:1015500020D0B8D0B7D0B2D0BBD0B5D187D0B5D01D
:10156000BDD0B000534420D0BAD0B0D180D182D009
:10157000B020D0B2D181D182D0B0D0B2D0BBD0B562
:10158000D0BDD0B000D0A1D0B4D0B5D0BBD0B0D0F9
:10159000B9D182D0B520D181D0B1D180D0BED18196
:1015A00000D09FD0A0D098D09DD0A2D095D0A02020
:1015B000D09ED0A1D0A2D090D09DD09ED092D09BD2
:1015C000D095D09D0025533A20255300D0A3D0912B
:1015D000D098D0A2D09E2E20005072696E74657291
:1015E0002068616C7465642E206B696C6C282920FE
:1015F00063616C6C6564210A006563686F3A00453D
:1016000072726F723A004F4646004F4E000A4D65A7
:1016100061737572656420706F696E74733A00331C
:101620007833206D6573682E205A206F6666736567
:10163000743A2000486F74656E6420746F6F206385
:101640006F6C640A0047323620D0B7D0B0D0B2D029
:10165000B5D180D188D0B5D0BDD0B00047323620CA
:10166000D0BDD0B0D0B3D180D0B5D0B220D181D050
:10167000BED0BFD0BBD0B00047323620D0BDD0B036
:10168000D0B3D180D0B5D0B220D181D182D0BED05C
:10169000BBD0B00057616974696E6720666F7220B5
:1016A0006865617475702E0A00D09FD180D0BED15C
:1016B00087D0B8D181D182D0BAD0B020D184D0B86F
:1016C000D0BAD1812ED0B4D0BBD0B8D0BDD18B0090
:1016D000D09FD180D0BED187D0B8D181D182D0BAAD
:1016E000D0B020D0BED0BAD0BED0BDD187D0B5D07A
:1016F000BDD0B000D0A0D183D187D0BDD0B0D18F24
:1017000020D0BFD180D0BED187D0B8D181D182D0F6
:10171000BAD0B000D092D18BD0B9D182D0B820D07D
:10172000B8D0B720473236003F53706563696669A9
:10173000656420582C5920636F6F7264696E617400
:1017400065206F7574206F6620626F756E64732EEE
:101750000A003F28522965706561742076616C75B6
:1017600065206E6F7420706C61757369626C653B87
:10177000206D757374206265206174206C656173DF
:101780007420312E0A003F53706563696669656491
:10179000206E6F7A7A6C652074656D706572617405
:1017A000757265206E6F7420706C61757369626C00
:1017B000652E0A003F53706563696669656420663B
:1017C000696C616D656E742073697A65206E6F74E3
:1017D00020706C61757369626C652E0A003F5370EE
:1017E00065636966696564207072696D65206C6502
:1017F0006E677468206E6F7420706C6175736962B7
:101800006C652E0A003F53706563696669656420E4
:101810006E6F7A7A6C652073697A65206E6F7420BA
:10182000706C61757369626C652E0A003F52657455
:1018300072616374696F6E204D756C7469706C6948
:101840006572206D757374206265207370656369BD
:10185000666965642E0A003F537065636966696551
:10186000642052657472616374696F6E204D756C8B
:101870007469706C696572206E6F7420706C61752C
:101880007369626C652E0A003F537065636966690F
:101890006564206C61796572206865696768742089
:1018A0006E6F7420706C61757369626C652E0A00CE
:1018B00043292E0A003F5370656369666965642099
:1018C0006265642074656D706572617475726520FF
:1018D0006E6F7420706C61757369626C652028345A
:1018E000302D00473236207374617274696E672E32
:1018F0002E2E0A004F46460A004661646520486560
:10190000696768742000426564204C6576656C697F
:101910006E6720004661696C656420746F20656E97
:1019200061626C6520426564204C6576656C696E09
:10193000670A004D65736820426564204C657665D2
:101940006C20646174613A0A00496E76616C696466
:10195000206D6573682E0A00206E6F7420656E74AA
:10196000657265642E0A00D0A2D0BED187D0BAD0ED
:10197000B020D181D0B5D182D0BAD0B800255320C3
:1019800025692F256900206F6620004D424C2047B5
:10199000323920706F696E742000290A004A206F66
:1019A0007574206F662072616E67652028302D0087
:1019B000290A0049206F7574206F662072616E6776
:1019C000652028302D004732384C3000D097D0BEEB
:1019D000D0BDD0B4D0B8D180D0BED0B2D0B0D0BD00
:1019E000D0B8D0B520D0B2D18BD0BFD0BED0BBD074
:1019F000BDD0B5D0BDD0BE004D6573682070726F8C
:101A000062696E6720646F6E652E0A00537461729E
:101A100074206D6573682070726F62696E672077DD
:101A20006974682022473239205331222066697256
:101A300073742E0A00473239533200686173206E86
:101A40006F20646174612E0A004D657368204265E1
:101A500064204C6576656C696E67200053206F7555
:101A600074206F662072616E67652028302D3529DD
:101A70002E0A0020440020204D3230302053002018
:101A80002844697361626C6564293A0046696C6137
:101A90006D656E742073657474696E6773002020C1
:101AA0004D3230312058004D617820416363656CC0
:101AB00065726174696F6E2028756E6974732F7317
:101AC00032290020204D3230332058004D617820DB
:101AD0006665656472617465732028756E697473D8
:101AE0002F73290020520020204D32303420500026
:101AF000416363656C65726174696F6E2028756EF1
:101B00006974732F7332292028503C7072696E7487
:101B10002D616363656C3E20523C72657472616333
:101B2000742D616363656C3E20543C74726176650C
:101B30006C2D616363656C3E2900204A00205400CF
:101B400020530020204D3230352042004164766120
:101B50006E6365642028423C6D696E5F7365676DD6
:101B6000656E745F74696D655F75733E20533C6D7F
:101B7000696E5F66656564726174653E20543C6D94
:101B8000696E5F74726176656C5F666565647261CB
:101B900074653E204A3C6A756E635F6465763E29D3
:101BA0000020440020490020204D333031205000D7
:101BB000486F74656E6420504944002044002049F9
:101BC0000020204D333034205000426564205049BD
:101BD0004400D09DD0B520D183D0B4D0B0D0BBD0FC
:101BE000BED181D18C20D0B7D0B0D0BFD0B0D18001
:101BF000D0BAD0BED0B2D0B0D182D18C00496E73F1
:101C00006572742066696C616D656E7420616E64C6
:101C100020707265737320627574746F6E0A00D0E1
:101C20009DD0B0D0B3D180D0B5D182D0BE00D09DF0
:101C3000D0B0D0B3D180D0B5D0B22E2E2E005072FD
:101C400065737320627574746F6E20746F2068659D
:101C50006174206E6F7A7A6C650A00496E736572E2
:101C6000742066696C616D656E7420616E642070AD
:101C70007265737320627574746F6E0A00203B0086
:101C800020550020204D363033204C0046696C61D1
:101C90006D656E74206C6F61642F756E6C6F61641E
:101CA000003B2000D0A1D0BED0BD2E2E2E004D6511
:101CB000736820706F696E74206F7574206F662072
:101CC00072616E67650A00D09FD180D0BED0B4D05B
:101CD000BED0BBD0B6D0B8D182D18C2E2E2E00D0A3
:101CE0009DD0B5D18220D0B4D0B2D0B8D0B6D0B5C6
:101CF000D0BDD0B8D18F2E00456E642066696C656A
:101D0000206C6973740A00426567696E2066696CAD
:101D100065206C6973740A004E6F206D656469619B
:101D20000A00286E6F2066696C652900437572721F
:101D3000656E742066696C653A20004E6F7420539E
:101D400044207072696E74696E670A005344207093
:101D500072696E74696E67206279746520002E0A5C
:101D60000044656C6574696F6E206661696C6564BA
:101D70002C2046696C653A200046696C65206465D4
:101D80006C657465643A0043616E6E6F74206F70A9
:101D9000656E207375626469722000256973002581
:101DA000696D20256973002569682025696D2025E6
:101DB000697300256964202569682025696D2025DF
:101DC00069730025697920256964202569682025C3
:101DD000696D20256973005072696E742074696D95
:101DE000653A20006F6B004C696E653A20006F66A3
:101DF0006600391334132D13261318134445425526
:101E0000473A004D3131322053687574646F776EF4
:101E1000004D313133205300546F726E61646F2076
:101E20004F46462E0020732E0A00496E6163746986
:101E3000766974792074696D656F75742000434FFD
:101E40004E4649475F4558504F5254004D45415406
:101E50005041434B00434F4F4C45525F54454D500A
:101E600045524154555245004348414D4245525F09
:101E700054454D50455241545552450045505F42DE
:101E800041425953544550004241425953544550E0
:101E900050494E470041524353004D4F54494F4E15
:101EA0005F4D4F44455300544845524D414C5F509F
:101EB000524F54454354494F4E00455854454E44A3
:101EC00045445F4D323000435553544F4D5F4649B2
:101ED000524D574152455F55504C4F4144004C467E
:101EE0004E5F5752495445004C4F4E475F46494C50
:101EF000454E414D45004155544F5245504F525467
:101F00005F53445F5354415455530053445F5752F9
:101F100049544500524550454154004D554C544993
:101F20005F564F4C554D4500534443415244005079
:101F3000524F4D50545F535550504F525400484FDC
:101F400053545F414354494F4E5F434F4D4D414EB3
:101F5000445300454D455247454E43595F50415209
:101F600053455200434153455F4C494748545F42F3
:101F700052494748544E45535300544F47474C45E8
:101F80005F4C494748545300534F465457415245BC
:101F90005F504F574552004255494C445F5045529F
:101FA00043454E54004C4556454C494E475F4441CD
:101FB0005441005A5F50524F42450052554E4F55C2
:101FC00054004155544F4C4556454C005052494ED3
:101FD000545F4A4F420050524F47524553530041BD
:101FE00055544F5245504F52545F54454D50004147
:101FF00055544F5245504F52545F504F5300564F17
:102000004C554D455452494300454550524F4D00A3
:1020100042494E4152595F46494C455F5452414EE8
:10202000534645520053455249414C5F584F4E5F0D
:10203000584F4646004649524D574152455F4E4122
:102040004D453A4D61726C696E20322E312E332D22
:10205000626574613220284D61722020392032304F
:1020600032352031383A35343A34352920534F55FA
:102070005243455F434F44455F55524C3A6769743C
:102080006875622E636F6D2F4D61726C696E466963
:10209000726D776172652F4D61726C696E2050525E
:1020A0004F544F434F4C5F56455253494F4E3A3170
:1020B0002E30204D414348494E455F545950453AD2
:1020C000546F726E61646F204B494E454D415449C7
:1020D00043533A43617274657369616E2045585485
:1020E00052554445525F434F554E543A3120555551
:1020F00049443A63656465326132662D3431613238
:102100002D343734382D396231322D63353563360D
:1021100032663336376666002F2F004D3134352056
:10212000533C696E6465783E206F7574206F66203D
:1021300072616E67652028302D31290A003F4A20E0
:102140006F7574206F662072616E67652028302E6F
:10215000303120746F20302E33290A00205800209F
:10216000204D61783A2000200020204D696E3A20F1
:1021700000203B200020204D323131205300536F8E
:10218000667420656E6473746F707300250A004670
:10219000523A0020466C6F773A20004D424C204165
:1021A000646A757374205A0064697300656E004335
:1021B000290061626C656420286D696E2074656D0C
:1021C000702000436F6C6420657874727564657369
:1021D0002061726520004D65736820706F696E74B0
:1021E000206F7574206F662072616E67650A004DFE
:1021F00034323120696E636F72726563742070616E
:1022000072616D657465722075736167650A00D0CF
:10221000A1D0BCD0B5D189D0B5D0BDD0B8D18F2098
:10222000D0BFD180D0B8D0BCD0B5D0BDD0B5D0BD96
:10223000D18B00D09ED188D0B8D0B1D0BAD0B03A2E
:1022400020D181D0BBD0B8D188D0BAD0BED0BC20EC
:10225000D0B4D0B0D0BBD0B5D0BAD0BE2100546F6E
:102260006F206661722066726F6D204D494E2F4D52
:1022700041580A00454550524F4D204F4B0A004DE2
:10228000383400446F6E65207072696E74696E67D1
:102290002066696C650A004D3737004D33310020E8
:1022A000204D323036205800486F6D65206F6666CD
:1022B000736574004361703A00D09ED185D0BBD065
:1022C000B0D0B6D0B4D0B5D0BDD0B8D0B52E2E2EAB
:1022D00000453120255300D09ED185D0BBD0B0D051
:1022E000B6D0B4D0B5D0BDD0B8D0B520D181D182D0
:1022F000D0BED0BBD0B02E2E2E00D09DD0B0D0B34B
:10230000D180D0B5D0B220D181D182D0BED0BBD0C7
:10231000B02E2E2E0023646566696E652044454606
:1023200041554C545F0000626564004B6420004BD3
:102330006920004B7020002066696E6973686564CF
:10234000212050757420746865206C617374204B73
:10235000702C204B6920616E64204B6420636F6E8B
:102360007374616E74732066726F6D2062656C6F3A
:102370007720696E746F20436F6E6669677572614E
:1023800074696F6E2E680A00504944204175746F5D
:1023900074756E6500206661696C656421207469DE
:1023A0006D656F75740A00504944204175746F74EF
:1023B000756E6500206661696C6564212054656DE9
:1023C000706572617475726520746F6F20686967DB
:1023D000680A00504944204175746F74756E650039
:1023E000D0A6D0B8D0BAD0BBD18B2050494400255C
:1023F000532025692F256900204B643A2000204B8B
:10240000693A2000204B703A200020436C617373BE
:10241000696320504944200A00204E6F206F766582
:102420007273686F6F740A002054753A2000204B55
:10243000753A2000206D61783A2000206D696E3A6F
:10244000200020643A200020626961733A2000D0A5
:102450009DD0B0D0B3D180D0B5D0B22E2E2E0020DA
:1024600073746172740A00504944204175746F742A
:10247000756E6500206661696C6564212054656D28
:10248000706572617475726520746F6F206869671A
:10249000680A00504944204175746F74756E650078
:1024A000D090D0B2D182D0BED0BAD0B0D0BBD0B84C
:1024B000D0B1D180D0BED0B2D0BAD0B02050494433
:1024C00000206661696C6564212042616420686552
:1024D000617465722069640A005049442041757432
:1024E0006F74756E65004572723A20757466382097
:1024F000666F6E74206E6F7420696E697469616CAA
:10250000697A65642E004572723A207574663820C7
:10251000666F6E74206E6F7420696E697469616C89
:10252000697A65642E004572723A207574663820A7
:10253000666F6E74206E6F7420696E697469616C69
:10254000697A65642E00080090A85C018D27080058
:10255000ABAD380055270800AFCF9001C525080066
:10256000D1D11E00A725200020003A002000200025
:102570003A003A002568753A2530326875002530F2
:102580003268753A25303268750025303268752713
:1025900025303268750025687564202530326875ED
:1025A0003A253032687500000C0F00FE0000000074
:1025B00000D1D10007000000050707060000500009
:1025C0007088F08070000C0F00FE0000000000AF6B
:1025D000CF0008FE0000050707060000788888780D
:1025E00028488805050506000070087888780507E2
:1025F000070600007080F0888888700505050600D1
:1026000000F088F088F0050505060000F88080805D
:10261000800506060600FF30505050F88805050575
:102620000600007088F08070050505060000A8709F
:102630002070A80505050600007088308870050523
:10264000050600008898A8C88805080806000088C4
:1026500070008898A8C88804050506010090A0C0ED
:10266000A09005050506000038484848880505057E
:1026700006000088D8A88888050505060000888817
:10268000F8888805050506000070888888700505AB
:1026900005060000F8888888880507070600FEF010
:1026A000888888F08080050505060000708880888D
:1026B00070050505060000F8202020200507070604
:1026C00000FE888888887808700509090600FE20C1
:1026D0002070A8A8A87020200505050600008850D5
:1026E0002050880507070600FE90909090F8080893
:1026F0000505050600008888780808050505060018
:1027000000A8A8A8A8F80507070600FEA8A8A8A87A
:10271000F80808050505060000C04070487005056A
:10272000050600008888C8A8C804050506010080C1
:1027300080E090E0040505060100E0107010E0055F
:10274000050506000090A8E8A8900405050601000C
:102750007090705090000C0F00FE0000000000AB65
:10276000AD0007000000050707060000888888C83C
:10277000A8A8C8040707060100808080E09090E0C8
:1027800005070706000070880878088870000C0F9D
:1027900000FE000000000090A8000AFE00000507EF
:1027A00007060000708888F88888880507070600F3
:1027B00000F08080F08888F0050707060000F088A8
:1027C00088F08888F0050707060000F88080808080
:1027D00080800508080600FF305050505050F8889F
:1027E000050707060000F88080F08080F8050707DD
:1027F000060000A8A8702070A8A80507070600001A
:102800007088087008887005070706000088889897
:10281000A8C88888050A0A06000088700088889879
:10282000A8C888880507070600008890A0C0A09067
:1028300088050707060000384848484848880507C3
:102840000706000088D8A88888888805070706003A
:1028500000888888F888888805070706000070883F
:102860008888888870050707060000F888888888A7
:102870008888050707060000F08888F080808005BA
:1028800007070600007088808080887005070706AB
:102890000000F820202020202005070706000088DF
:1028A0008888887808700507070600002070A8A8A7
:1028B000A8702005070706000088885020508888E7
:1028C0000509090600FE909090909090F808080580
:1028D00007070600008888887808080805070706A3
:1028E0000000A8A8A8A8A8A8F8000C0F00FE0702DE
:1028F0002503BB01FFFE0AFE08FE050808060000CE
:1029000040F0C88888987810050808060000C0F8CC
:102910008888888888F80505050600012030F83089
:10292000200508080600002070F820202020E0057F
:1029300009090600FF2070A8A8B88888702007053C
:1029400005070001D86C366CD80509090600FFF8A8
:10295000A88888888888A8F8050A0A0600FE2050FA
:1029600050505088A8A8887003030306000340A0B5
:1029700040FFFFFFFFFFFFFFFFFFFFFFFFFFFFFF26
:10298000FFFFFFFFFFFFFF0000000605FF01070735
:10299000060200808080808000800303030601051A
:1029A000A0A0A005060606000050F85050F85005FB
:1029B00009090600FF2070A8A07028A8702005074C
:1029C00007060000C8C810204098980507070600B1
:1029D0000040A0A040A89068010303060205808083
:1029E000800309090601FF2040408080804040208C
:1029F0000309090601FF8040402020204040800557
:102A0000070706000020A8702070A820050505060D
:102A100000012020F820200203030601FFC04080AF
:102A2000050101060003F8020202060100C0C0050C
:102A30000707060000081010204040800507070621
:102A40000000708898A8C888700307070601004036
:102A5000C040404040E005070706000070880810AD
:102A60002040F8050707060000F8081030088870B5
:102A700005070706000010305090F81010050707F2
:102A8000060000F880F008088870050707060000B7
:102A9000304080F0888870050707060000F80810AD
:102AA000102020200507070600007088887088889D
:102AB0007005070706000070888878081060020516
:102AC00005060100C0C000C0C00206060601FFC026
:102AD000C000C04080030505060101204080402061
:102AE000050303060002F800F8030505060101804E
:102AF0004020408005070706000070881020200055
:102B0000200507070600007088B8A8B88070050780
:102B100007060000708888F888888805070706007F
:102B200000F04848704848F0050707060000708824
:102B30008080808870050707060000F048484848F4
:102B400048F0050707060000F88080F08080F8054F
:102B50000707060000F88080F080808005070706E0
:102B6000000070888080988870050707060000883C
:102B70008888F8888888030707060100E0404040FD
:102B80004040E00507070600003810101010906064
:102B90000507070600008890A0C0A09088050707D9
:102BA000060000808080808080F80507070600000E
:102BB00088D8A8888888880507070600008888C8FC
:102BC000A898888805070706000070888888888884
:102BD00070050707060000F08888F08080800507F0
:102BE0000706000070888888A89068050707060017
:102BF00000F08888F0A0908805070706000070881C
:102C00008070088870050707060000F82020202043
:102C100020200507070600008888888888887005B6
:102C20000707060000888888885050200507070697
:102C3000000088888888A8A8500507070600008833
:102C40008850205088880507070600008888502093
:102C5000202020050707060000F80810204080F813
:102C60000309090601FFE080808080808080E00504
:102C700007070600008040402010100803090906DD
:102C800001FFE020202020202020E0050303060093
:102C9000052050880501010600FEF8030303060124
:102CA0000580402005050506000070087888780535
:102CB00007070600008080F0888888F00505050673
:102CC00000007080808870050707060000080878FB
:102CD000888888780505050600007088F0807005F2
:102CE0000707060000304840E0404040050707065F
:102CF00000FE708888887808700507070600008045
:102D000080F0888888880307070601004000C040DB
:102D10004040E00409090601FE10003010101010B8
:102D2000906005070706000080808890E090880387
:102D30000707060100C04040404040E00505050689
:102D40000000D0A8A8A8A8050505060000B0C888FE
:102D500088880505050600007088888870050707C3
:102D60000600FEF0888888F080800507070600FED0
:102D700078888888780808050505060000B0C880AE
:102D8000808005050506000078807008F0050707BB
:102D90000600002020F82020201805050506000068
:102DA000888888986805050506000088888850206E
:102DB0000505050600008888A8A850050505060039
:102DC0000088502050880507070600FE8888885034
:102DD000204080050505060000F8102040F8030992
:102DE000090601FF20404040804040402001090981
:102DF0000602FF8080808080808080800309090631
:102E000001FF804040402040404080050303060011
:102E10000248A890FFFFFFFFFFFFFFFFFFFFFFFF3C
:102E2000FFFFFFFFFFFFFFFFFFFFFFFFFFFFFFFFB2
:102E3000FFFFFFFFFF0000000605FF010707060276
:102E400000800080808080800507070600FF2070DA
:102E5000A8A0A87020050707060000304840E04001
:102E600048B0050505060000A8508850A8050707CA
:102E70000600008850F820F820200107070602000D
:102E800080808000808080040808060100708060D7
:102E900090906010E0030101060107A006070706F5
:102EA00000007884B4A4B4847803050506010460A6
:102EB000A06000E00505050600002850A050280588
:102EC0000303060001F80808030101060103E006F8
:102ED00007070600007884B4A4A4847805010106DD
:102EE0000007F804040406010560909060050707D8
:102EF0000600002020F8202000F803050506010444
:102F000040A02040E0030505060104C0204020C089
:102F10000303030601052040800507070600FE881D
:102F2000888898E8808005080806000078E8E8E8C6
:102F300068282828020202060203C0C00302020613
:102F400001FE20C003050506010440C04040E00327
:102F5000050506010540A04000E005050506000046
:102F6000A0502850A0050A0A06000040C048506042
:102F700050B0507810050A0A06000040C048506062
:102F800050A8081038050A0A060000C0204830E0A2
:102F900050B05078100507070600002000202040A0
:102FA0008870050A0A060000402000708888F888AA
:102FB0008888050A0A060000102000708888F888B2
:102FC0008888050A0A060000205000708888F88862
:102FD0008888050A0A06000068B000708888F888AA
:102FE00088880509090600005000708888F88888DC
:102FF00088050A0A060000205020708888F8888812
:103000008805070706000078A0A0F0A0A0B8050971
:10301000090600FE708880808088701060050A0AAA
:10302000060000402000F88080F08080F8050A0A41
:10303000060000102000F88080F08080F8050A0A61
:10304000060000205000F88080F08080F805090913
:103050000600005000F88080F08080F8030A0A061D
:103060000100804000E04040404040E0030A0A0682
:103070000100204000E04040404040E0030A0A06D2
:10308000010040A000E04040404040E00309090644
:103090000100A000E04040404040E0050707060076
:1030A00000704848E8484870050A0A06000068B001
:1030B000008888C8A8988888050A0A060000402069
:1030C0000070888888888870050A0A060000102029
:1030D0000070888888888870050A0A0600002050D9
:1030E0000070888888888870050A0A06000068B021
:1030F00000708888888888700509090600005000DB
:103100007088888888887005050506000188502029
:1031100050880509090600FF087098A8A8A8C8707B
:1031200080050A0A06000040200088888888888870
:1031300070050A0A060000102000888888888888A0
:1031400070050A0A06000020500088888888888850
:1031500070050909060000500088888888888870F2
:10316000050A0A0600001020008888502020202030
:1031700004070706010080E0909090E080050707B3
:10318000060000708890A09088B00508080600002E
:103190004020007008788878050808060000102094
:1031A0000070087888780508080600002050007034
:1031B0000878887805080806000068B0007008786C
:1031C00088780507070600005000700878887805A1
:1031D000080806000020502070087888780505054A
:1031E000060000702870A0780507070600FE7088AA
:1031F0008088701060050808060000402000708874
:10320000F080700508080600001020007088F0802B
:10321000700508080600002050007088F0807005D6
:10322000070706000050007088F080700308080649
:103230000100804000C0404040E003080806010053
:10324000204000C0404040E003080806010040A0C4
:1032500000C0404040E0030707060100A000C04056
:103260004040E00509090600005020500878888891
:10327000887005080806000068B000B0C888888813
:10328000050808060000402000708888887005083E
:10329000080600001020007088888870050808065D
:1032A000000020500070888888700508080600001B
:1032B00068B0007088888870050707060000500015
:1032C00070888888700505050600012000F8002038
:1032D0000505050600007898A8C8F005080806004E
:1032E00000402000888888887005080806000010C3
:1032F0002000888888887005080806000020500093
:10330000888888887005070706000050008888882C
:103310008870050A0A0600FE102000888888502060
:1033200040800509090600FE8080F0888888F080CA
:10333000800509090600FE500088888850204080DA
:10334000D09ED188D0B8D0B1D0BAD0B020D0BFD024
:10335000B0D180D0BAD0BED0B2D0BAD0B8006F70E1
:10336000656E00545249474745524544003A200093
:103370007A5F6D696E00795F6D696E00785F6D6967
:103380006E005265706F7274696E6720656E64734B
:10339000746F70207374617475730A0020746F6F9A
:1033A000206C6F6E6720657874727573696F6E201C
:1033B00070726576656E7465640A0020636F6C6474
:1033C00020657874727573696F6E207072657665AA
:1033D0006E7465640A000000000000000000000038
:1033E00000005761726E696E673A20486F6D696EB2
:1033F000672042756D702044697669736F72203C56
:1034000020310A000202040000A0400000A0400099
:103410000000400000000100000001000080005595
:103420005555000000400033333300AAAA2A004952
:1034300092240000002000C7711C0099991900D146
:10344000451700555515003BB113002449120011D2
:10345000111100000010000F0F0F00E3380E0043A1
:10346000790D00CCCC0C00C3300C00E8A20B00643A
:10347000210B00AAAA0A00703D0A009DD80900424B
:103480007B090092240900DCD3080088880800101A
:1034900042080000000800F0C10700878707007598
:1034A000500700711C07003EEB0600A1BC06006936
:1034B00090060066660600703E060061180600175A
:1034C000F4050074D105005BB00500B29005006200
:1034D0007205005555050078390500B81E05000530
:1034E0000505004EEC040087D40400A1BD04009043
:1034F000A7040049920400C17D0400EE690400C7DE
:10350000560400444404005C3204000821040041D5
:10351000100400000004003FF00300F8E003002660
:10352000D20300C3C30300CCB503003AA803000ACA
:103530009B0300388E0300C08103009F750300D0F9
:10354000690300505E03001D5303003448030091DB
:103550003D03003333030016290300381F0300978F
:10356000150300300C0300030303000BFA020049AB
:10357000F10200BAE802005CE002002DD802002D42
:10358000D0020059C80200B0C0020031B90200DA0E
:10359000B10200AAAA0200A0A30200BC9C0200FA89
:1035A0009502005C8F0200DF8802008282020045E3
:1035B0007C02002776020027700200436A02007C2A
:1035C000640200D05E02003F590200C8530200FFAF
:1035D000FDFCFAF8F6F4F2F0EEECEAE9E7E5E3E1F7
:1035E000E0DEDCDAD9D7D5D4D2D0CFCDCBCAC8C7AC
:1035F000C5C3C2C0BFBDBCBAB9B7B6B4B3B2B0AF31
:10360000ADACAAA9A8A6A5A4A2A1A09E9D9C9A998A
:10361000989795949392908F8E8D8B8A89888786C0
:1036200084838281807F7E7D7B7A797877767574DA
:10363000737271706F6E6D6C6B6A696867666564D2
:10364000636261605F5E5D5C5B5A595858575655BE
:103650005453525150504F4E4D4C4B4A4A49484793
:103660004646454443424241403F3E3E3D3C3B3B53
:103670003A39383837363535343332323130302F05
:103680002E2E2D2C2B2B2A292928272726252524A9
:10369000232322212120201F1E1E1D1C1C1B1B1A40
:1036A00019191818171616151514131312121111CB
:1036B000100F0F0E0E0D0D0C0C0B0A0A090908084D
:1036C00007070606050504040303020201000000C3
:1036D000009B43000096430000C843000000000028
:1036E00000000000000000D09FD0B0D180D0B0D04A
:1036F000BCD0B5D182D180D18B20D181D0BED18533
:10370000D180D0B0D0BDD0B5D0BDD18B00290A00BA
:103710002062797465733B20637263200053657483
:1037200074696E67732053746F726564202800207B
:103730004D61726C696E3D563930290A004545501D
:10374000524F4D2076657273696F6E206D69736D8F
:10375000617463682028454550524F4D3D004545F2
:1037600050524F4D206461746173697A65206572AF
:10377000726F722E0A00202863616C63756C61742D
:10378000656429210A0020213D2000454550524F03
:103790004D20435243206D69736D61746368202D21
:1037A000202873746F726564292000454550524F7C
:1037B0004D20436F72727570740A002053697A65E8
:1037C0003A2000496E6465783A2000206279746579
:1037D000733B2063726320002073746F72656420F2
:1037E00073657474696E6773207265747269657647
:1037F0006564202800454550524F4D20496E69743C
:1038000069616C697A65640A0044656661756C7407
:103810002053657474696E677320526573746F7298
:1038200065640048617264636F6465642044656622
:1038300061756C742053657474696E6773204C6F86
:10384000616465640000007A4300007A430000F080
:103850004100005C420000A0420000A0420000C8FD
:10386000430000CB43D0070000D0070000780000E1
:10387000001027000020286D6D2900203B204C659A
:1038800076656C696E67200020204D3432302053FD
:10389000004D65736820426564204C6576656C69EF
:1038A0006E670020460020420020480020204D3155
:1038B00034352053004D6174657269616C20686510
:1038C0006174757020706172616D657465727300EA
:1038D0002020473239205334205A00204A0020202B
:1038E00047323920533320490020204D31343920CC
:1038F00043203B20556E69747320696E2043656CCC
:10390000736975730A0054656D70657261747572C0
:103910006520556E697473002020473231203B00CA
:103920004C696E65617220556E6974730024F4D41D
:103930003050C38D20C3A24117828B7011127A9030
:103940000D826CDA0AA861E108C758660761514226
:10395000061F4B5E05C145A6041B411204093D9795
:1039600003723931034136DB0266339202D430539D
:1039700002812E1D02642CEE01762AC501B128A118
:1039800001102781018F2564012B244A01E1223493
:1039900001AD2120018D200C01811FFC00851EED51
:1039A00000981DDF00B91CD200E71BC700201BBB1D
:1039B00000651AB200B319A9000A19A0006A189884
:1039C00000D217920040178A00B616840032167E85
:1039D00000B41579003B157400C7146F0058146AC1
:1039E00000EE1366008813620026135E00C8125BA7
:1039F000006D12570016125500C111510070114E82
:103A00000022114C00D61049008D10460047104589
:103A10000002104200C00F4000800F3E00420F3CE9
:103A200000060F3A00CC0E3900930E37005C0E35BD
:103A300000270E3400F30D3200C10D3100900D2F20
:103A400000610D2F00320D2D00050D2C00D90C2A20
:103A500000AF0C2A00850C28005D0C2800350C27CF
:103A6000000E0C2500E90B2500C40B2400A00B233D
:103A7000007D0B22005B0B21003A0B2100190B206B
:103A800000F90A1F00DA0A1F00BB0A1E009D0A1D6A
:103A900000800A1C00640A1C00480A1C002C0A1B37
:103AA00000110A1A00F7091A00DD091900C40919E2
:103AB00000AB091800930918007B09170064091767
:103AC000004D09170036091600200915000B0915CD
:103AD00000F6081500E1081500CC081400B8081419
:103AE00000A4081300910813007E0813006B08124D
:103AF0000059081200470812003508120023081167
:103B0000001208110001081000F1071100E0071071
:103B100000D0071000C0070F00B1071000A1070F69
:103B20000092070F0083070F0074070E0066070E50
:103B30000058070E004A070E003C070E002E070D26
:103B40000021070D0014070D0007070D00FA060DF0
:103B500000ED060C00E1060D00D4060C00C8060CB2
:103B600000BC060C00B0060B00A5060C0099060B65
:103B7000008E060B0083060B0078060B006D060B0B
:103B80000062060B0057060A004D060A0043060BAA
:103B90000038060A002E060A00240609001B060A41
:103BA0000011060A0007060900FE050A00F40509CF
:103BB00000EB050900E2050900D9050900D0050957
:103BC00000C7050800BF050900B6050900AD0508D6
:103BD00000A50508009D050800950509008C05084D
:103BE00000840508007C050700750508006D0508C0
:103BF00000650507005E050800560507004F05082B
:103C00000047050700400507003905070032050792
:103C1000002B050700240507001D050700160507F2
:103C2000000F0506000905070002050600FC040751
:103C300000F5040600EF040700E8040600E20406AD
:103C400000DC040600D6040600D0040700C9040501
:103C500000C4040600BE040600B8040600B2040650
:103C600000AC040600A6040500A10406009B0405A0
:103C70000096040600900405008B040600850405E8
:103C800000800405007B040500760406007004052E
:103C9000006B04050066040500610405005C040572
:103CA0000057040500520405004D040500480404B3
:103CB00000440405003F0405003A040400360405EE
:103CC00000310405002C040400280405002304042A
:103CD000001F0405001A0404001604040012040561
:103CE000000D040400090404000504040001040597
:103CF00000FC030400F8030400F4030400F00304D0
:103D000000EC030400E8030400E4030400E00304FF
:103D100000DC030400D8030400D4030300D103042F
:103D200000CD030400C9030400C503040000000023
:103D30000000000000000000000000000000000083
:103D40000000000000D1036D6403570D0347C60255
:103D50003B8B023259022B2E0225090221E8011C5D
:103D6000CC011AB201179B0114870113740111636E
:103D7000010F54010E46010D39010D2C010B2101DB
:103D80000A17010A0D0109040108FC0008F40007E4
:103D9000ED0007E60007DF0006D90006D30005CED8
:103DA0000006C80005C30004BF0005BA0004B60041
:103DB00004B20004AE0004AA0004A60003A3000499
:103DC0009F00039C00039900039600039300029157
:103DD00000038E00028C0003890002870003840028
:103DE000028200028000027E00027C00027A000251
:103DF0007800027600017500027300027100017004
:103E000000026E00016D00026B00016A0002680092
:103E100001670002650001640001630001620002A5
:103E20006000015F00015E00015D00015C00015B5C
:103E300000015A00015900015800015700015600C5
:103E400001550001540001530001520001510000CE
:103E50005100015000014F00014E00014D00004D86
:103E600000014C00014B00014A00004A00014900DA
:103E700001480000480001470001460000460001DB
:103E80004500004500014400014300004300014299
:103E900000004200014100004100014000004000DC
:103EA000013F00003F00013E00003E00013D0000D8
:103EB0003D00013C00003C00013B00003B00013A9A
:103EC00000003A00013900003900003900013800D3
:103ED00000380001370000370000370001360000CD
:103EE0003600003600013500003500013400003492
:103EF00000003400013300003300003300013200C1
:103F000000320000320001310000310000310000B9
:103F10003100013000003000003000012F00002F80
:103F200000002F00002F00012E00002E00002E00A8
:103F3000012D00002D00002D00002D00012C00009F
:103F40002C00002C00002C00012B00002B00002B6B
:103F500000002B00012A00002A00002A00002A008D
:103F6000002A000129000029000029000029000181
:103F70002800002800002800002800002800012751
:103F8000000027000027000027000027000126006E
:103F90000026000026000026000026000026000162
:103FA0002500002500002500002500002500002533
:103FB000000124000024000024000024000024004C
:103FC0000024000123000023000023000023000040
:103FD0002300002300012200002200002200002212
:103FE0000000220000220000220001210000210028
:103FF000002100002100002100002100002100011B
:1040000020000020000020000020000020000020F0
:1040100000002000002000011F00001F00001F0002
:10402000001F00001F00001F00001F000020436F42
:10403000756E7420583A0000D0A1D182D0BED0BB9A
:104040002C2020094300453100626564002C207358
:10405000797374656D2073746F7070656421204886
:1040600065617465725F49443A2000D09ED188D062
:10407000B8D0B1D0BAD0B03A20D0A220D0BCD0B005
:10408000D0BAD1812E004D415854454D5020747204
:104090006967676572656400D0A0D0B0D0B7D0BE44
:1040A000D0B3D180D0B5D0B220D0BDD0B520D1838F
:1040B000D0B4D0B0D0BBD181D18F004865617469D4
:1040C0006E67206661696C656400D09ED188D0B847
:1040D000D0B1D0BAD0B03A20D0A220D0BCD0B8D085
:1040E000BD2E004D494E54454D502074726967678E
:1040F0006572656400D0A3D0A2D095D0A7D09AD025
:104100009020D0A2D095D09CD09FD095D0A0D09018
:10411000D0A2D0A3D0A0D0AB00546865726D616C02
:104120002052756E6177617900202F002042403A5D
:104130000020403A0020573A0020573A007C3C3E8D
:104140005E2B3D3F2F5B5D3B2C2A225C0043616E62
:104150006E6F74206F70656E207375626469722073
:10416000005761726E696E673A00D0A1D0B1D0BEBF
:10417000D0B920D0B8D0BDD0B8D186D0B8D0B0D0CA
:10418000BBD0B8D0B7D0B0D186D0B8D0B8205344C7
:104190000053442063617264206F6B0A006F706586
:1041A0006E526F6F74206661696C65640A00766F89
:1041B0006C756D652E696E6974206661696C6564E5
:1041C0000A004E6F20534420636172640A00534416
:1041D00020636172642072656C65617365640A00B6
:1041E0000A4D3234004D3233202573002E0A006F01
:1041F00070656E206661696C65642C2046696C652B
:104200003A200046696C652073656C65637465646B
:104210000A002053697A653A200046696C65206F70
:1042200070656E65643A2000454E442053554252F5
:104230004F5554494E450A002220706F73002220CA
:10424000706172656E743A2200535542524F555454
:10425000494E452043414C4C207461726765743A65
:104260002200D09FD0B5D180D0B5D0BFD0BED0BBBA
:10427000D0BDD0B5D0BDD0B8D0B520D0B2D18BD0C4
:10428000B7D0BED0B2D0B0004578636565646564D0
:10429000206D617820535542524F5554494E452068
:1042A00064657074683A0057726974696E67207447
:1042B0006F2066696C653A200066726573680064F9
:1042C0006F696E67002066696C653A20004E6F77F3
:1042D00020002F6175746F25632E6700026D617277
:1042E0006C696E66772E6F726700322E312E332D19
:1042F0006265746132001FFFFFFFFFFFFF60000077
:10430000000001FF400000000000FF8000000000EE
:10431000007F83CF00000C303F87FF80000C301FF0
:10432000867980000C000F8C30C7838C30E78C308E
:10433000CFC7CC31F38C30DCECEC33B98C30D86C9B
:104340006C33198C30D06C0C33198C30D86C0C3326
:10435000198C30DC6C0E3B198C30CF7C079F198C8C
:1043600030C77C038F19400000000000026000008D
:10437000000000061FFFFFFFFFFFF8200140013093
:10438000013B01400136016001310170012C0190B7
:10439000012701B0012201C0011D01F00118011027
:1043A00002130130020E016002090190020401C0F3
:1043B00002FF000003FA004003F5008003F000D084
:1043C00003EB002004E6007004E100E004DC0040A0
:1043D00005D700C005D2004006CD00D006C8008039
:1043E00007C3003008BE00F008B900C009B400B02F
:1043F0000AAF00B00BAA00D00CA500000EA0005020
:104400000F9B00C01096005012910000148C00C049
:10441000158700B0178200B0197D00D01B7800000E
:104420001E730040206E0090226900F0246400405A
:10443000275F0090295A00E02B5500102E500020D5
:10444000304B0010324600E033410090353C001004
:1044500037370070383200A0392D00B03A2800A05C
:104460003B2300603C1E00103D1900903D140010DD
:104470003E0F00703E0A00C03E0500003F000040B5
:104480003FFBFF803FF6FFC03FF1FF2020506C61F3
:104490006E6E657242756666657242797465733ACE
:1044A00020002046726565204D656D6F72793A2057
:1044B0000020436F6D70696C65643A204D61722015
:1044C000203920323032350A00204C617374205577
:1044D0007064617465643A20323032352D30312D8C
:1044E0003136207C20417574686F723A20287468D8
:1044F000697369736B65697468622C205465766FA3
:1045000020546F726E61646F205632290A004D612B
:10451000726C696E20322E312E332D6265746132D9
:104520000A0020536F667477617265205265736567
:10453000740A00205761746368646F672052657362
:1045400065740A002042726F776E206F7574205276
:10455000657365740A002045787465726E616C201D
:1045600052657365740A00506F77657255700A0062
:1045700073746172740A004732385859004D3130F3
:104580003031006F6B006572726F722077726974E0
:10459000696E6720746F2066696C650A00446F6EEF
:1045A0006520736176696E672066696C652E0A0006
:1045B0004D323900D09AD0BED0BDD186D0B5D0B260
:1045C000D0B8D0BA00255320256320256320256369
:1045D00020256300205A3A0020593A0020583A001A
:1045E000656E6473746F7073206869743A2000009C
:1045F000000A0B02090C0D0E08070304010000005D
:1046000000000000000000000000000000000000AA
:104610000000000000000000000000121110000067
:10462000000000000000000000000000000000008A
:104630000000000000302E30323500302E310031C5
:104640002E3000D094D0B2D0B8D0B6D0B5D0BDD036
:10465000B8D0B52024D0BCD0BC0031300000009BC5
:1046600043000096430000C843D094D0B2D0B8D0E5
:10467000B6D0B5D0BDD0B8D0B520D0BFD0BE20D038
:10468000BED181D18FD0BC00D0ADD0BAD181D18282
:10469000D180D183D0B4D0B5D180202A00D094D09D
:1046A000B2D0B8D0B6D0B5D0BDD0B8D0B520D0BF7C
:1046B000D0BE2040002000200020000F03F01F4F3C
:1046C000F11F43F19F3CACF07F375F0EF00F333F9B
:1046D00017AF31258F0E7F30117F175F2F6F1E3F71
:1046E0002F5F202F304F15352F333F16413F353F79
:1046F00014AF33035F0DBF34069F01824F341BF0AC
:10470000955F352F186F372F148F3A2F0D009F3D6F
:104710003F09CF412F03A13F440F00492F652F646C
:104720003F633F421F0E4F441F0B4F472F065F4B07
:104730003E601F4F0C072F643F624F623F615F5F17
:10474000501F661F510F032F320F0F2D3F2D7F0F6C
:104750002A4F2E6F12166F304F1B131F040F011BB1
:10476000474F1F2660B06134116311436F1325F06A
:10477000705042B2A28F1034F03050B0C1B1AF0EC1
:104780002013B13060B0C0C0BF121335113060F0DB
:10479000A0F0242F10242611305150302531243020
:1047A000262F0C5515314741304061B0252F0E366C
:1047B000B1573130F18F0C6691835130F18F0C5825
:1047C00071935131D050508F0E49523E01A20C07C7
:1047D0005F101F1E2F19FFFFFF220A00556E6B6E20
:1047E0006F776E20636F6D6D616E643A20220020DA
:1047F0004500205A0020590020204D393220580011
:1048000053746570732070657220756E697400450D
:1048100072726F722077726974696E6720746F208C
:10482000454550524F4D210A00DB0FC93F45BCDAC8
:104830003F8FB30240FCF0274056946140FE4B9BF3
:104840004084A5D840E0231841346A5641E859977E
:104850004164DBD5416E271742B4B75542CE1A9753
:1048600042C8AED542B5885A43D40684BFA65FA7D6
:10487000BF7443E0BF10B11AC01C2C58C0E8F697B3
:10488000C0B849D6C04E4E17C124D355C180249715
:10489000C1A0B5D5C1121A17C244AE55C278179738
:1048A000C26CACD5C267885AC320746F6F206C6F1E
:1048B0006E6720657874727573696F6E20707265AB
:1048C00076656E7465640A0020636F6C6420657899
:1048D00074727573696F6E2070726576656E74653B
:1048E000640A00D0A1D0BDD0B0D187D0B0D0BBD0A9
:1048F000B020D0BFD0B0D180D0BAD183D0B92025DC
:104900007300486F6D6520257320466972737400CB
:1049100020453A00205A3A0020593A00583A006F90
:104920006B0A00526573656E643A20000000220035
:10493000250028002B002E00310034000201000069
:10494000050108010B0100002100240027002A00B6
:104950002D003000330001010000040107010A01AD
:1049600005050505070508080808020202020A0AEB
:104970000808040404040101010101010101030309
:10498000030303030303040707070C0C0C0C0C0CB4
:104990000C0C0202020206060606060606060B0BB1
:1049A0000B0B0B0B0B0B01021020200808102040F2
:1049B00010204080020102010804020101020408E3
:1049C0001020408080402010080402018004020171
:1049D00080402010080402010804020101020408BA
:1049E000102040800102040810204080546F726E35
:1049F00061646F20D093D0BED182D0BED0B22E00E1
:104A0000D09FD0B5D187D0B0D182D18C2E2E2E00A0
:104A1000D09FD0B5D187D0B0D182D18C20D0BDD09D
:104A2000B020D0BFD0B0D183D0B7D0B50000EE0059
:104A3000EA0011241FBECFEFD1E2DEBFCDBF00E000
:104A40000CBF84B78093591714BE0FB6F894A8957D
:104A500080916000886180936000109260000FBEBA
:104A600013E0A0E0B2E0ECE4FDE802E00BBF02C01E
:104A700007900D92AA3DB107D9F727E1AAEDB3E05F
:104A800001C01D92A935B207E1F715E2C8E1D5E2F0
:104A900000E006C021970109802FFE010F945742C4
:104AA000C731D10780E00807A9F70F94F32D0D94C3
:104AB00095460C940000FC0184910895FC018081CE
:104AC00008956091310270913202072E000C880B1C
:104AD000990B0F94A23B2AE037ED43E25CE30F947D
:104AE000013C20911606309117064091180650910E
:104AF00019060F94013C60937002709371028093C9
:104B0000720290937302089580915B08811104C032
:104B10008091390880938E080895CF93DF93EC013C
:104B2000CB01BA010F94A23B688379838A839B836C
:104B3000DF91CF910895CF93DF93EC01CB01BA01C0
:104B40000F94A23B688379838A839B83DF91CF9103
:104B5000089581E08093E403089582E08093E40364
:104B60000895CF93DF93EC01642F70E090E080E034
:104B70000F94A23B29EC38EC48EC5EE30F94F8422A
:104B800020E030E040E05FE30F947E420F94654305
:104B90006883DF91CF910895E0915B0886E0E80299
:104BA000F0011124ED5DF74F8091390890E0958375
:104BB00084830895CF93DF93EC01CB01BA010F9466
:104BC000A23B20E030E048EC52E40F94F8422FE69C
:104BD00032E143E85AE30F947E42688379838A8303
:104BE0009B83DF91CF910895CF93DF93EC01CB01AD
:104BF000BA010F94A23B20E030E048EC52E40F945D
:104C0000F8422FE632E143E85AE30F947E4268838C
:104C100079838A839B83DF91CF910895CF93DF932C
:104C2000EC01CB01BA010F94A03B2AE037ED43E23F
:104C30005DE30F94F8420F946543688379838A8318
:104C40009B83DF91CF910895CF93DF93EC01CB014C
:104C5000BA010F94A23B2AE037ED43E25DE30F94E3
:104C6000F842688379838A839B83DF91CF9108958B
:104C7000CF93DF93EC01CB01BA010F94A23B688381
:104C800079838A839B83DF91CF910895CF93DF93BC
:104C9000EC01CB01BA010F94A23B20E030E048ECDC
:104CA00052E40F94F8422FE632E143E85AE30F94BE
:104CB0007E42688379838A839B83DF91CF910895B5
:104CC000CF93DF93EC01CB01BA010F94A23B20E01C
:104CD00030E040E251E40F94F8422AE037ED43E23D
:104CE0005CE30F947E42688379838A839B83DF91A0
:104CF000CF910895FC01518340830895CF93DF93B2
:104D0000EC01CB01BA010F94A23B20E030E04AE76E
:104D100054E40F94F84227E137EB41ED58E30F9448
:104D20007E42688379838A839B83DF91CF91089544
:104D3000FC01A081B1811C92A281B3818C918F5F13
:104D40008C930280F381E02D90818CE0989F800D00
:104D50001124E2E5F5E113AE84AF0895CF92DF921E
:104D6000EF92FF92CF93C82F0F94041E6B017C012A
:104D700024EA30E74DE75FE3609108027091090291
:104D800080910A0290910B020F949C3B87FD18C002
:104D90008AEF90E0A0E0B0E08C0D9D1DAE1DBF1D20
:104DA0008093040490930504A0930604B093070431
:104DB000C0930102CF91FF90EF90DF90CF900895C4
:104DC00080E090E0DC01E8CFCF92DF92EF92FF929B
:104DD0000F931F930F94041E0091E9031091EA03AF
:104DE0002091EB033091EC036B017C01C01AD10AD6
:104DF000E20AF30A9701860137FD11C02091E8030A
:104E000020952093E8036A547C4F8F4F9F4F609307
:104E1000E9037093EA038093EB039093EC0381E042
:104E20009091E803911101C080E01F910F91FF90D4
:104E3000EF90DF90CF900895CF93DF93CDB7DEB79B
:104E400020E2488559856F818E810F943419DF9156
:104E5000CF910895CF92DF92EF92FF920F94A23BF1
:104E60006B017C0120E030E0A9010F949C3B2DEB0D
:104E700037E346E055E387FF04C02DEB37E346E018
:104E800055EBC701B6010F947E426B017C0120E017
:104E900030E0A9010F949C3B20E030E040E05FE36C
:104EA00087FF04C020E030E040E05FEBC701B601BF
:104EB0000F947E420F946043CB01FF90EF90DF9000
:104EC000CF900C949BF3CB010C949BF370E090E09B
:104ED00080E00F94A23B29EC38EC48EC5EE30F94A1
:104EE000F84220E030E040E05FE30F947E420F9410
:104EF0006543862F0C94CFF3CF92DF92EF92FF920F
:104F0000CF93DF9300D01F92CDB7DEB76B017C014A
:104F100020E030E0A9010F949C3B87FD1DC06DEBA4
:104F200077E386E095E3A70196010F947E426983BB
:104F30007A838B839C8362E070E0CE0101960F94AC
:104F4000521A0F900F900F900F90DF91CF91FF901A
:104F5000EF90DF90CF9008956DEB77E386E095EBCF
:104F6000E2CF0F94A23B20E030E04AE754E40F94F4
:104F7000F84227E137EB41ED58E30F947E42BCCF76
:104F8000609139088FEF0D94022C80913908682FB9
:104F90000D94022C6FEF809139080D94022C8F92A2
:104FA0009F92AF92BF92CF92DF92EF92FF92CF93F8
:104FB0006B017C0120E030E0A9010F949C3B87FF4E
:104FC0008BC06DEB77E386E095EBA70196010F941C
:104FD0007E424B015C0142E050E00E9403F46B0111
:104FE0007C0120E030E040E251ECC501B4010F94B7
:104FF0009C3B181654F420E030E048EC52E4C50124
:10500000B4010F940A4487FD6CC0C701B60120E1CA
:1050100037E240E050E00F94E841CA01B9012AE0CC
:1050200030E040E050E00F94E841605DF7FE09C0D9
:10503000F094E094D094C094C11CD11CE11CF11CEC
:105040006DE260933F08C701B60128EE33E040E00F
:1050500050E00F94E8419AE0892E912CA12CB12CBC
:10506000CA01B901A50194010F94E841605D609304
:105070004008C701B60124E630E040E050E00F945C
:10508000E841CA01B901A50194010F94E841605DAE
:10509000609341088EE280934208C701B601A501E2
:1050A00094010F94E841C62FCA01B901A5019401EA
:1050B0000F94E841605D60934308C05DC09344086D
:1050C0008FE398E0CF91FF90EF90DF90CF90BF906B
:1050D000AF909F908F9008956DEB77E386E095E316
:1050E00074CF20E030E0A901C501B4010F940A4457
:1050F00087FD0BC020E030E040E251E4C501B4017F
:105100000F949C3B60E287FD1CC0C701B60128EEEE
:1051100033E040E050E00F94E841CA01B9012AE0D1
:1051200030E040E050E00F94E841605DF7FE09C0D8
:10513000F094E094D094C094C11CD11CE11CF11CEB
:105140006DE260934008C701B60124E630E040E01C
:1051500050E00F94E8418AE0882E912CA12CB12CCC
:10516000CA01B901A50194010F94E841605D609303
:1051700041088EE280934208C701B601A50194015F
:105180000F94E841C62FCA01B901A50194010F94FB
:10519000E841605D60934308C05DC093440880E4CB
:1051A00098E090CF0F94A23B20E030E048EC52E42E
:1051B0000F94F8422FE632E143E85AE30F947E421F
:1051C000EECE8F929F92AF92BF92CF92DF92EF92EC
:1051D000FF92CF936B017C0120E030E0A9010F9496
:1051E0009C3B87FD76C06DEB77E386E095E3A701F6
:1051F00096010F947E4242E050E00E9403F46B015E
:105200007C018BE2F7FE09C0F094E094D094C09446
:10521000C11CD11CE11CF11C8DE280933E08C7012A
:10522000B60120E137E240E050E00F94E8418AE027
:10523000882E912CA12CB12CCA01B901A501940191
:105240000F94E841605D60933F08C701B60128EE06
:1052500033E040E050E00F94E841CA01B901A501F4
:1052600094010F94E841605D60934008C701B60166
:1052700024E630E040E050E00F94E841CA01B90173
:10528000A50194010F94E841605D609341088EE2AE
:1052900080934208C701B601A50194010F94E8412B
:1052A000C62FCA01B901A50194010F94E841605DC0
:1052B00060934308C05DC09344088EE398E0CF91AB
:1052C000FF90EF90DF90CF90BF90AF909F908F9026
:1052D00008956DEB77E386E095EB89CF0F94A23BC1
:1052E00020E030E048EC52E40F94F8422FE632E13F
:1052F00043E85AE30F947E4264CF8F929F92AF921D
:10530000BF92CF92DF92EF92FF92CF936B017C011D
:1053100020E030E0A9010F949C3B87FDCCC06DEBF1
:1053200077E386E095E3A70196010F947E426B0137
:105330007C0120E030E0A9010F949C3B87FF04C072
:10534000F7FAF094F7F8F09442E050E0C701B601A4
:105350000E9403F46B017C0160E280E4C81682E4E1
:10536000D8068FE0E806F1048CF0C701B60120E40E
:1053700032E44FE050E00F94E841CA01B9012AE05D
:1053800030E040E050E00F94E841605D60933D08FC
:1053900060E280EAC81686E8D80681E0E806F104F3
:1053A0008CF0C701B60120EA36E841E050E00F94E6
:1053B000E841CA01B9012AE030E040E050E00F9432
:1053C000E841605D60933E0860E280E1C81687E2D4
:1053D000D806E104F1048CF0C701B60120E137E200
:1053E00040E050E00F94E841CA01B9012AE030E002
:1053F00040E050E00F94E841605D60933F0860E258
:1054000088EEC81683E0D806E104F1048CF0C701E9
:10541000B60128EE33E040E050E00F94E841CA01C5
:10542000B9012AE030E040E050E00F94E841605DCF
:105430006093400860E284E6C816D104E104F104F8
:105440008CF0C701B60124E630E040E050E00F9454
:10545000E841CA01B9012AE030E040E050E00F9491
:10546000E841605D609341088EE2809342088AE0E3
:10547000882E912CA12CB12CC701B601A501940155
:105480000F94E841C62FCA01B901A50194010F94F8
:10549000E841605D60934308C05DC09344088DE3BC
:1054A00098E0CF91FF90EF90DF90CF90BF90AF90BA
:1054B0009F908F9008956DEB77E386E095EB33CF67
:1054C0000F94A23B20E030E048EC52E40F94F84205
:1054D0002FE632E143E85AE30F947E420ECF9091DB
:1054E0002F0681E089270C94E38561E089E398E049
:1054F0000C94FC856BE171E582E00D949D296DE1D2
:1055000071E581E00D949D296FE171E580E00D94D6
:105510009D2964E679E483E00D949D29CF92DF9282
:10552000EF92FF92CF93DF9300D01F92CDB7DEB7FB
:105530006B017C0120E030E0A9010F949C3B87FDCA
:105540001BC06DEB77E386E095E3A70196010F940E
:105550007E4269837A838B839C83CE0101960F946C
:10556000E21A0F900F900F900F90DF91CF91FF9064
:10557000EF90DF90CF9008956DEB77E386E095EBA9
:10558000E4CF0F94A23B20E030E040E251E40F94DE
:10559000F8422AE037ED43E25CE30F947E42BECF4F
:1055A0008091B716882301F12FEF3FEF30935F0210
:1055B00020935E0281508093B716EEE0FEE08823D0
:1055C00051F08150990B2BE1289FF001299FF00D9C
:1055D0001124E755FA4E8BE1A3EFBDE001900D9247
:1055E0008A95E1F70F94A0242091B716211105C0E8
:1055F0008091C21680648093C21681E090E0A0E0A2
:10560000B0E0211103C080E090E0DC018093490804
:1056100090934A08A0934B08B0934C081092360818
:1056200081E08093590883E080936F0208950F947E
:10563000CE120E945E87882331F08EEB94E0909327
:10564000E0078093DF070C948EF28F929F92AF92C7
:10565000BF92EF92FF920F931F93CF93DF93EC01D2
:105660008B01E42EF22E80914215909143158C17F8
:105670009D0709F442C01092E6032091E30327FD41
:105680001092E30325E6CF31D20709F041C0875DD0
:105690009B4371F40F94041E6E517B4F8F4F9F4FAD
:1056A000609358047093590480935A0490935B0458
:1056B000D0934315C093421530E020E00093490891
:1056C00010934A0820934B0830934C08E092360818
:1056D000F0922F08C75DDB4321F41092E70310928C
:1056E000570482E080936F0281E080935908109202
:1056F0006D041092710410926804DF91CF911F9194
:105700000F91FF90EF90BF90AF909F908F90089572
:105710002BE3C73DD20761F68F519546D9F40F941C
:10572000041E8090580490905904A0905A04B090A0
:105730005B04681979098A099B0997FF0BC080915E
:10574000D0078770873031F40E949788CDEADBE27A
:105750008111AECFC7EDDBE3ABCF20E040E070E0DE
:1057600060E088ED99E471DF81E08093E7031092B7
:10577000650810926408089581E08093E703109211
:10578000D0071092050683EF97E09093E00780938F
:10579000DF0720E040E070E060E085E59CE255CF67
:1057A00020E040E070E060E089E89AE24ECFCF93DD
:1057B000C1E0C093E703FC0180819181A281B381A4
:1057C0008093080290930902A0930A02B0930B02FF
:1057D00020E040E070E060E0809137089091380868
:1057E00034DFC093E603CF910895CF93DF9300D0C9
:1057F0001F92CDB7DEB78DEC9CECACECBCE389839B
:105800009A83AB83BC83CE010196D1DF0F900F90BA
:105810000F900F90DF91CF910895CF93DF9300D039
:105820001F92CDB7DEB78DEC9CECACECBDE3898369
:105830009A83AB83BC83CE010196B9DF0F900F90A2
:105840000F900F90DF91CF910895CF93DF9300D009
:105850001F92CDB7DEB780E090E0A0E8BFE3898378
:105860009A83AB83BC83CE010196A1DF0F900F908A
:105870000F900F90DF91CF910895CF93DF9300D0D9
:105880001F92CDB7DEB780E090E0A0E2B1E489835B
:105890009A83AB83BC83CE01019689DF0F900F9072
:1058A0000F900F90DF91CF91089580916F02882320
:1058B00041F030E020E041E061ED77E082E00E94DD
:1058C000AE81809105068770873039F420E040E092
:1058D00070E060E085E19DE2B8CE089580916F02AE
:1058E000882351F06091390870913A0830E020E047
:1058F00041E081E00C94AE81089580916F0E90910B
:10590000700E0E94B885811107C080E899E09093DD
:10591000E0078093DF07089520E040E070E060E05A
:105920008AEA93E792CECF93DF9300D000D01F9204
:105930001F92CDB7DEB788E0E8E7F2E0DE0111960E
:1059400001900D928A95E1F7E0916904EE0FFF0B4B
:10595000E052FD4F808191818330910509F44FC061
:105960008430910509F455C0029741F480E090E03D
:10597000ACE8B3E489839A83AB83BC8320E030E056
:1059800040E850E46091F2087091F3088091F408C7
:105990009091F5080F947E426093F2087093F3089B
:1059A0008093F4089093F50880EF92E00E9434ED24
:1059B00028EC32E042EF58E0BE016B5F7F4FCE0132
:1059C00001960E944DED1092F2081092F308109289
:1059D000F4081092F50880EF92E00E9434ED809177
:1059E00069048F5F8430F4F48093690428960FB6BD
:1059F000F894DEBF0FBECDBFDF91CF91089588E050
:105A0000E8EDF2E0DE01119601900D928A95E1F742
:105A1000B5CF80E090E0A7E8B3E48D839E83AF83A9
:105A2000B887ACCF10926904E1CF809105068770EA
:105A30008730A1F480912F0680936A0480E00E9451
:105A4000E3851092690420E040E070E060E082EFBE
:105A500093E6FBDD81E08093680465CF089521E73C
:105A600032EB47E25EE360916404709165048091DB
:105A70006604909167040F94F84260938F0E7093C0
:105A8000900E8093910E9093920E0C94AE85E7CF7A
:105A900021E732EB47E25EE36091640470916504B4
:105AA00080916604909167040F94F8426093630EAE
:105AB0007093640E8093650E9093660E089521E7AF
:105AC00032EB47E25EE36091600470916104809183
:105AD0006204909163040F94013C60938B0E709369
